:100000000C942E000C94CE060C943A070C94A60780
:100010000C9412080C947E080C944B000C94550F11
:100020000C944B000C94030F0C94EA080C945609A2
:100030000C94C2090C942E0A0C949A0A0C94060B88
:100040000C94720B0C94DE0B0C944A0C0C94B60CB2
:100050000C94220D0C948E0D0C94FA0D11241FBEDD
:10006000CFEFD4E0DEBFCDBF11E0A0E0B1E0E4E22D
:10007000F6E202C005900D92AC31B107D9F724E049
:10008000ACE1B1E001C01D92AF36B207E1F70E94CA
:1000900041020C9410130C940000EF92FF920F9306
:1000A0001F93CF93DF9300D000D0CDB7DEB7E82FFA
:1000B000F0E0EE0FFF1FE056FF4F80819181FE01BF
:1000C0003196AE014B5F5F4F282F2F702193929591
:1000D00082958F7089279F708927E417F507A1F70C
:1000E0006630710508F050C16115710559F52CEEA7
:1000F00030E0F9018081807F808381EF90E0FC0116
:100100004081407F4083A6EFB0E04C91407F4C930C
:100110000BEF10E0F8014081407F4083F9015081EE
:100120004C81452B4083FC0130812B81232B208384
:100130009C918A81892B8C93F80190818981892BEC
:10014000808373C06130710509F041C04CEE50E00E
:10015000FA0180818F70808321EF30E0F901808186
:100160008F708083A6EFB0E08C918F708C930F2EF0
:10017000FBEFEF2EF12CF02DF70180818F70808343
:10018000FA0110819C81F0E19F9FC0011124812B15
:10019000FA018083F90140819B81F0E19F9FC001BA
:1001A0001124842BF90180832C919A81F0E19F9F87
:1001B000C0011124822B8C93F70120819981F0E1F9
:1001C0009F9FC0011124822BF70180836FC0623092
:1001D000710559F52DEE30E0F9018081807F808333
:1001E00082EF90E0FC014081407F4083A7EFB0E0C8
:1001F0004C91407F4C930CEF10E0F8014081407F20
:100200004083F90150814C81452B4083FC013081B2
:100210002B81232B20839C918A81892B8C93F8013D
:1002200090818981892B80836FC063307105F1F5DE
:100230004DEE50E0FA0180818F70808322EF30E034
:10024000F90180818F708083A7EFB0E08C918F706F
:100250008C930CEF10E0F80180818F708083FA019D
:1002600060819C81F0E19F9FC0011124862BFA01DF
:100270008083F90140819B81F0E19F9FC00111249F
:10028000842BF90180832C919A81F0E19F9FC0011A
:100290001124822B8C93F80120819981F0E19F9F9A
:1002A000C0011124822BF80180836EC06430710577
:1002B00059F52EEE30E0F9018081807F808383EF55
:1002C00090E0FC014081407F4083A8EFB0E04C917A
:1002D000407F4C936DEF70E0FB014081407F408395
:1002E000F90150814C81452B4083FC0130812B81E9
:1002F000232B20839C918A81892B8C93FB019081F5
:100300008981892B808340C065307105E9F54EEE07
:1003100050E0FA0180818F70808323EF30E0F90193
:1003200080818F708083A8EFB0E08C918F708C9368
:100330000DEF10E0F80180818F708083FA016081F9
:100340009C81F0E19F9FC0011124862BFA018083DC
:10035000F90140819B81F0E19F9FC0011124842B12
:10036000F90180832C919A81F0E19F9FC0011124B3
:10037000822B8C93F80120819981F0E19F9FC0012D
:100380001124822BF80180830F900F900F900F9013
:10039000DF91CF911F910F91FF90EF9008958F9271
:1003A0009F92AF92BF92CF92DF92EF92FF92CF9344
:1003B000DF934B015C01EA0124E630E040E050E0CD
:1003C0000E9460120F2EFAE0CF2ED12CE12CF12CDE
:1003D000F02DA70196010E946012BE0180E3820FFA
:1003E0000E944D002196C501B401A70196010E940B
:1003F0006012862FBE01805D0E944D00DF91CF917B
:10040000FF90EF90DF90CF90BF90AF909F908F9034
:100410000895CF93DF93FB01C4E6D0E0CB01BE018A
:100420000E944C129C01CF01821B930BBE010E94C3
:100430004C12AB01B901330F880B990B0E94CF010D
:10044000DF91CF910895E1E6F0E080E880831082AB
:10045000089520ED25B99CE09EB980EC8DBB2093DA
:100460006C0090936B0090E59DB997EB9093E5003D
:1004700097E09093E6009FE09093E7008093E4007C
:100480000895CF93DF93CDB7DEB7C054D1090FB62F
:10049000F894DEBF0FBECDBF0E9423020E94290246
:1004A0001A8219821C821B821E821D8218861F825C
:1004B0001A8619861C861B861E861D86188A1F862C
:1004C0001A8A198A1C8A1B8A86E090E09E8B8D8B83
:1004D000188E1F8A9E012F5F3F4F3A8F298FCE01C2
:1004E00005969C8F8B8F1E8E1D8E18A21F8E1AA2B2
:1004F00019A21CA21BA21EA21DA218A61FA244E0A4
:1005000050E05AA749A75CA74BA73EA72DA798ABD9
:100510008FA71AAA19AA1CAA1BAA04969EAB8DAB78
:10052000245E3F4F38AF2FAB9AAF89AF1CAE1BAEE6
:100530001EAE1DAE21961FAE1EAE219741E061E3B7
:1005400073E088960E94161242E061E373E0CE01E8
:10055000C1960E94161240E050E067E274E0CE01BE
:10056000C1960E943012C05CDF4F0FB6F894DEBF18
:100570000FBECDBFDF91CF910895672B31F0FC0105
:1005800026813781318720870895FC0124813581B8
:10059000318720870895FC01138612860895CF9233
:1005A000DF92EF92FF920F931F93FC011586148642
:1005B00017861686672BE9F01E9937C0A085B1858E
:1005C00081E090E01B969C938E931A97008511858D
:1005D000C12CD12C0F2EF6E7EF2EF4E0FF2EF02DDC
:1005E00020E030E0A90160E070E0CB010E940A1039
:1005F0001CC01F991AC0A085B18581E090E01B96B0
:100600009C938E931A9700851185C12CD12C0F2EA7
:10061000FCEDEF2EF4E0FF2EF02D20E030E0A901FC
:1006200060E070E0CB010E940A101F910F91FF90D3
:10063000EF90DF90CF900895DC011896ED91FC913A
:10064000199782859385009759F01F9902C01E9BC8
:1006500005C01386128681E090E0089580E090E066
:100660000895CF92DF92EF92FF920F931F93CF9353
:10067000DF93EC010E941C03892B09F0DFC01F9956
:100680002CC008851985C12CD12C0F2EFCEDEF2E26
:10069000F4E0FF2EF02D20E030E0A90160E070E0F2
:1006A000CB010E940A108E859F85892B09F0C6C058
:1006B00081E090E09F878E870F2EFFECEF2EF2E017
:1006C000FF2EF02D8E0120E030E0A90164ED70E3F3
:1006D00080E090E00E940A10B1C01E992FC00885EA
:1006E0001985C12CD12C0F2EF6E7EF2EF4E0FF2E4A
:1006F000F02D20E030E0A90160E070E0CB010E9425
:100700000A108C859D85892B09F098C081E090E0C6
:100710009D878C87CC24C394D12C0F2EFFECEF2E19
:10072000F2E0FF2EF02D8E0120E030E0A90164ED13
:1007300070E380E090E00E940A1080C01C9956C0CF
:100740008A859B85892B09F051C008851985F80198
:1007500084819581892B29F5C12CD12C0F2EF0E9AC
:10076000EF2EF5E0FF2EF02D20E030E0A90160E053
:1007700070E0CB010E940A1081E090E09B878A879D
:100780000F2EFBECEF2EF2E0FF2EF02D8E0120E07D
:1007900030E0A90164ED70E380E090E00E940A106F
:1007A0004DC0C12CD12C0F2EFAEDEF2EF5E0FF2E0F
:1007B000F02D20E030E0A90160E070E0CB010E9464
:1007C0000A1081E090E09B878A870F2EFBECEF2ECA
:1007D000F2E0FF2EF02D8E0120E030E0A90164ED63
:1007E00070E380E090E00E940A1028C0629912C075
:1007F000C12CD12C0F2EFDEBEF2EF2E0FF2EF02DB1
:100800008E0120E030E0A90160E070E0CB010E94A1
:100810000A1014C0639912C0CC24C394D12C0F2E9B
:10082000FDEBEF2EF2E0FF2EF02D8E0120E030E008
:10083000A90160E070E0CB010E940A10DF91CF9126
:100840001F910F91FF90EF90DF90CF900895CF927E
:10085000DF92EF92FF920F931F93CF93DF93EC0100
:10086000EC81FD8100891189C12CD12C0F2EF9E07A
:10087000EF2EF2E0FF2EF02D20E030E0A90160E045
:1008800070E0CB010E940A10EE81FF81008911897E
:100890000F2EF0E9CF2EDD24D394F02D20E030E0B0
:1008A000A90160E070E0CB010E940A10DF91CF91B6
:1008B0001F910F91FF90EF90DF90CF9008952EB190
:1008C00081E090E002C0880F991F6A95E2F78227C5
:1008D0008EB908952EB181E090E002C0880F991F73
:1008E0006A95E2F7809582238EB90895CF92DF92C0
:1008F000EF92FF920F931F93CF93DF93EC018C81C4
:100900009D81892BA9F481E090E09F838E83C12C87
:10091000D12C0F2EFFE2EF2EF5E0FF2EF02D8E01F1
:1009200020E030E0A90160E070E0CB010E940A10F5
:10093000CC80DD8083E6C816D104ACF58FEFC81AF1
:10094000D80ADD82CC822E853F8544E6429FC001D5
:10095000439F900D1124C80ED91E088919890F2EA6
:10096000F9E0EF2EF2E0FF2EF02D20E030E0A901BB
:1009700060E070E0CB010E940A108A859B85892B7C
:1009800091F0C12CD12C0F2EF6E7EF2EF4E0FF2EC4
:10099000F02D8E0120E030E0A9016FE472E180E0EB
:1009A00090E00E940A10DF91CF911F910F91FF906C
:1009B000EF90DF90CF900895CF92DF92EF92FF9269
:1009C0000F931F93CF93DF93FC01C480D5801C1439
:1009D0001D04E4F5EC01F1E0CF1AD108DD82CC82F0
:1009E0002E853F8544E6429FC001439F900D112410
:1009F000C80ED91E088919890F2EF9E0EF2EF2E0F2
:100A0000FF2EF02D20E030E0A90160E070E0CB0186
:100A10000E940A108A859B85892B91F0C12CD12CCC
:100A20000F2EFCEDEF2EF4E0FF2EF02D8E0120E0D6
:100A300030E0A9016FE472E180E090E00E940A10CA
:100A40008C819D81892B11F41F821E82DF91CF91B1
:100A50001F910F91FF90EF90DF90CF900895CF926C
:100A6000DF92EF92FF920F931F93CF93DF93EC01EE
:100A70008E819F81892BC9F1CC84DD840A891B89F1
:100A80000F2EFFE5EF2EF4E0FF2EF02D20E030E0FA
:100A9000A90160E070E0CB010E940A102C813D8129
:100AA000032E000C440B550B60E271EA87E090E0E6
:100AB0000E946012ADE7B0E00E947F1220EA3FE0A2
:100AC00040E050E00E946012CA01B901C12CD12C53
:100AD0000F2EFFE2EF2EF5E0FF2EF02D8E0120E02D
:100AE00030E0A9010E940A1012C0CC84DD840A897A
:100AF0001B890F2EFAE6EF2EF4E0FF2EF02D20E0FA
:100B000030E0A90160E070E0CB010E940A10DF91A3
:100B1000CF911F910F91FF90EF90DF90CF900895AC
:100B2000CF92DF92EF92FF920F931F93CF93DF93B9
:100B3000EC01888599859D838C83181619068CF5A0
:100B400081E090E09F838E83C12CD12C0F2EFFE299
:100B5000EF2EF5E0FF2EF02D8E0120E030E0A90110
:100B600060E070E0CB010E940A108E859F8524E62C
:100B7000289F6001299FD00C11248C819D81C80E73
:100B8000D91E088919890F2EF9E0EF2EF2E0FF2E09
:100B9000F02D20E030E0A90160E070E0CB010E9480
:100BA0000A10DF91CF911F910F91FF90EF90DF908E
:100BB000CF900895CF92DF92EF92FF920F931F9301
:100BC000FC01848195819187808715821482178228
:100BD00016828685978524E6289F6001299FD00C80
:100BE0001124008911890F2EF9E0EF2EF2E0FF2E7B
:100BF000F02D20E030E0A90160E070E0CB010E9420
:100C00000A101F910F91FF90EF90DF90CF90089501
:100C1000CF93DF9300D000D0CDB7DEB78FE092E066
:100C20002FEE32E0FC01709791838083409682170B
:100C30009307C1F71092E0021092DF02EAE4F1E0BC
:100C400087E691E09183808384E891E0968F858F99
:100C5000A1EAB1E0B3AFA2AF1D921C92FA83E9837F
:100C6000EBE4F3E0FC83EB8389819A8106960E9492
:100C7000CF128B819C81E981FA81978B868B918F32
:100C8000808F88EA91E1948F838F158214827D96FC
:100C9000FA83E983EB81FC81E05AFF4FFC83EB830D
:100CA00089819A818E5B9140F9F6E2EEF1E0118242
:100CB00010821582148213821282E1E6F0E080E84D
:100CC00080831082109285001092840084E08093CB
:100CD000810081E080936F000F900F900F900F9034
:100CE000DF91CF910895CF93DF9300D0CDB7DEB7DA
:100CF0009A838983809114019091150106960E9430
:100D0000CF12892B59F489819A8190931501809390
:100D1000140161E070E006960E94EF120F900F90B0
:100D2000DF91CF9108950F931F93CF93DF93E091BD
:100D30002401F0912501309761F180911801909183
:100D40001901009731F1C0911601D0911701AA81C4
:100D5000BB81109779F04681578160857185169621
:100D60000D911D912D913C911997401B510B620BD8
:100D7000730B7AF4FC0120813181309319012093A7
:100D80001801D183C08390931701809316010E94AC
:100D90007306DF91CF911F910F9108951F920F92CB
:100DA0000FB60F9211242F933F934F935F936F933E
:100DB0007F938F939F93AF93BF93EF93FF93209174
:100DC0001C0130911D014091840050918500C901A2
:100DD000032E000CAA0BBB0BDC019927882760E0CF
:100DE00070E0842B952BA62BB72B80931E0190933C
:100DF0001F01A0932001B0932101B09B1BC0409123
:100E0000840050918500C9010196092E000CAA0B9F
:100E1000BB0BDC019927882760E070E0842B952BC1
:100E2000A62BB72B80931E0190931F01A093200146
:100E3000B0932101E091BE01F091BF01309739F0EC
:100E400060E070E0809126019091270109950E9451
:100E50009306FF91EF91BF91AF919F918F917F91F9
:100E60006F915F914F913F912F910F900FBE0F9017
:100E70001F9018951F920F920FB60F9211242F9367
:100E80003F934F935F936F937F938F939F93AF9312
:100E9000BF93EF93FF9320911C0130911D0140916E
:100EA000840050918500C901032E000CAA0BBB0BD6
:100EB000DC019927882760E070E0842B952BA62B16
:100EC000B72B80931E0190931F01A0932001B09334
:100ED0002101B09B1BC04091840050918500C90145
:100EE0000196092E000CAA0BBB0BDC019927882761
:100EF00060E070E0842B952BA62BB72B80931E010E
:100F000090931F01A0932001B0932101E091C001B3
:100F1000F091C101309739F061E070E080912801D3
:100F20009091290109950E949306FF91EF91BF913D
:100F3000AF919F918F917F916F915F914F913F9171
:100F40002F910F900FBE0F901F9018951F920F9228
:100F50000FB60F9211242F933F934F935F936F938C
:100F60007F938F939F93AF93BF93EF93FF932091C2
:100F70001C0130911D014091840050918500C901F0
:100F8000032E000CAA0BBB0BDC019927882760E01D
:100F900070E0842B952BA62BB72B80931E0190938A
:100FA0001F01A0932001B0932101B09B1BC0409171
:100FB000840050918500C9010196092E000CAA0BEE
:100FC000BB0BDC019927882760E070E0842B952B10
:100FD000A62BB72B80931E0190931F01A093200195
:100FE000B0932101E091C201F091C301309739F033
:100FF00062E070E080912A0190912B0109950E9496
:101000009306FF91EF91BF91AF919F918F917F9147
:101010006F915F914F913F912F910F900FBE0F9065
:101020001F9018951F920F920FB60F9211242F93B5
:101030003F934F935F936F937F938F939F93AF9360
:10104000BF93EF93FF9320911C0130911D014091BC
:10105000840050918500C901032E000CAA0BBB0B24
:10106000DC019927882760E070E0842B952BA62B64
:10107000B72B80931E0190931F01A0932001B09382
:101080002101B09B1BC04091840050918500C90193
:101090000196092E000CAA0BBB0BDC0199278827AF
:1010A00060E070E0842B952BA62BB72B80931E015C
:1010B00090931F01A0932001B0932101E091C401FE
:1010C000F091C501309739F063E070E080912C0118
:1010D00090912D0109950E949306FF91EF91BF9188
:1010E000AF919F918F917F916F915F914F913F91C0
:1010F0002F910F900FBE0F901F9018951F920F9277
:101100000FB60F9211242F933F934F935F936F93DA
:101110007F938F939F93AF93BF93EF93FF93209110
:101120001C0130911D014091840050918500C9013E
:10113000032E000CAA0BBB0BDC019927882760E06B
:1011400070E0842B952BA62BB72B80931E019093D8
:101150001F01A0932001B0932101B09B1BC04091BF
:10116000840050918500C9010196092E000CAA0B3C
:10117000BB0BDC019927882760E070E0842B952B5E
:10118000A62BB72B80931E0190931F01A0932001E3
:10119000B0932101E091C601F091C701309739F079
:1011A00064E070E080912E0190912F0109950E94DA
:1011B0009306FF91EF91BF91AF919F918F917F9196
:1011C0006F915F914F913F912F910F900FBE0F90B4
:1011D0001F9018951F920F920FB60F9211242F9304
:1011E0003F934F935F936F937F938F939F93AF93AF
:1011F000BF93EF93FF9320911C0130911D0140910B
:10120000840050918500C901032E000CAA0BBB0B72
:10121000DC019927882760E070E0842B952BA62BB2
:10122000B72B80931E0190931F01A0932001B093D0
:101230002101B09B1BC04091840050918500C901E1
:101240000196092E000CAA0BBB0BDC0199278827FD
:1012500060E070E0842B952BA62BB72B80931E01AA
:1012600090931F01A0932001B0932101E091C80148
:10127000F091C901309739F065E070E0809130015C
:101280009091310109950E949306FF91EF91BF91D2
:10129000AF919F918F917F916F915F914F913F910E
:1012A0002F910F900FBE0F901F9018951F920F92C5
:1012B0000FB60F9211242F933F934F935F936F9329
:1012C0007F938F939F93AF93BF93EF93FF9320915F
:1012D0001C0130911D014091840050918500C9018D
:1012E000032E000CAA0BBB0BDC019927882760E0BA
:1012F00070E0842B952BA62BB72B80931E01909327
:101300001F01A0932001B0932101B09B1BC040910D
:10131000840050918500C9010196092E000CAA0B8A
:10132000BB0BDC019927882760E070E0842B952BAC
:10133000A62BB72B80931E0190931F01A093200131
:10134000B0932101E091CA01F091CB01309739F0BF
:1013500066E070E0809132019091330109950E941E
:101360009306FF91EF91BF91AF919F918F917F91E4
:101370006F915F914F913F912F910F900FBE0F9002
:101380001F9018951F920F920FB60F9211242F9352
:101390003F934F935F936F937F938F939F93AF93FD
:1013A000BF93EF93FF9320911C0130911D01409159
:1013B000840050918500C901032E000CAA0BBB0BC1
:1013C000DC019927882760E070E0842B952BA62B01
:1013D000B72B80931E0190931F01A0932001B0931F
:1013E0002101B09B1BC04091840050918500C90130
:1013F0000196092E000CAA0BBB0BDC01992788274C
:1014000060E070E0842B952BA62BB72B80931E01F8
:1014100090931F01A0932001B0932101E091CC0192
:10142000F091CD01309739F067E070E080913401A0
:101430009091350109950E949306FF91EF91BF911C
:10144000AF919F918F917F916F915F914F913F915C
:101450002F910F900FBE0F901F9018951F920F9213
:101460000FB60F9211242F933F934F935F936F9377
:101470007F938F939F93AF93BF93EF93FF932091AD
:101480001C0130911D014091840050918500C901DB
:10149000032E000CAA0BBB0BDC019927882760E008
:1014A00070E0842B952BA62BB72B80931E01909375
:1014B0001F01A0932001B0932101B09B1BC040915C
:1014C000840050918500C9010196092E000CAA0BD9
:1014D000BB0BDC019927882760E070E0842B952BFB
:1014E000A62BB72B80931E0190931F01A093200180
:1014F000B0932101E091CE01F091CF01309739F006
:1015000068E070E0809136019091370109950E9462
:101510009306FF91EF91BF91AF919F918F917F9132
:101520006F915F914F913F912F910F900FBE0F9050
:101530001F9018951F920F920FB60F9211242F93A0
:101540003F934F935F936F937F938F939F93AF934B
:10155000BF93EF93FF9320911C0130911D014091A7
:10156000840050918500C901032E000CAA0BBB0B0F
:10157000DC019927882760E070E0842B952BA62B4F
:10158000B72B80931E0190931F01A0932001B0936D
:101590002101B09B1BC04091840050918500C9017E
:1015A0000196092E000CAA0BBB0BDC01992788279A
:1015B00060E070E0842B952BA62BB72B80931E0147
:1015C00090931F01A0932001B0932101E091D001DD
:1015D000F091D101309739F069E070E080913801E5
:1015E0009091390109950E949306FF91EF91BF9167
:1015F000AF919F918F917F916F915F914F913F91AB
:101600002F910F900FBE0F901F9018951F920F9261
:101610000FB60F9211242F933F934F935F936F93C5
:101620007F938F939F93AF93BF93EF93FF932091FB
:101630001C0130911D014091840050918500C90129
:10164000032E000CAA0BBB0BDC019927882760E056
:1016500070E0842B952BA62BB72B80931E019093C3
:101660001F01A0932001B0932101B09B1BC04091AA
:10167000840050918500C9010196092E000CAA0B27
:10168000BB0BDC019927882760E070E0842B952B49
:10169000A62BB72B80931E0190931F01A0932001CE
:1016A000B0932101E091D201F091D301309739F04C
:1016B0006AE070E080913A0190913B0109950E94A7
:1016C0009306FF91EF91BF91AF919F918F917F9181
:1016D0006F915F914F913F912F910F900FBE0F909F
:1016E0001F9018951F920F920FB60F9211242F93EF
:1016F0003F934F935F936F937F938F939F93AF939A
:10170000BF93EF93FF9320911C0130911D014091F5
:10171000840050918500C901032E000CAA0BBB0B5D
:10172000DC019927882760E070E0842B952BA62B9D
:10173000B72B80931E0190931F01A0932001B093BB
:101740002101B09B1BC04091840050918500C901CC
:101750000196092E000CAA0BBB0BDC0199278827E8
:1017600060E070E0842B952BA62BB72B80931E0195
:1017700090931F01A0932001B0932101E091D40127
:10178000F091D501309739F06BE070E080913C0129
:1017900090913D0109950E949306FF91EF91BF91B1
:1017A000AF919F918F917F916F915F914F913F91F9
:1017B0002F910F900FBE0F901F9018951F920F92B0
:1017C0000FB60F9211242F933F934F935F936F9314
:1017D0007F938F939F93AF93BF93EF93FF9320914A
:1017E0001C0130911D014091840050918500C90178
:1017F000032E000CAA0BBB0BDC019927882760E0A5
:1018000070E0842B952BA62BB72B80931E01909311
:101810001F01A0932001B0932101B09B1BC04091F8
:10182000840050918500C9010196092E000CAA0B75
:10183000BB0BDC019927882760E070E0842B952B97
:10184000A62BB72B80931E0190931F01A09320011C
:10185000B0932101E091D601F091D701309739F092
:101860006CE070E080913E0190913F0109950E94EB
:101870009306FF91EF91BF91AF919F918F917F91CF
:101880006F915F914F913F912F910F900FBE0F90ED
:101890001F9018951F920F920FB60F9211242F933D
:1018A0003F934F935F936F937F938F939F93AF93E8
:1018B000BF93EF93FF9320911C0130911D01409144
:1018C000840050918500C901032E000CAA0BBB0BAC
:1018D000DC019927882760E070E0842B952BA62BEC
:1018E000B72B80931E0190931F01A0932001B0930A
:1018F0002101B09B1BC04091840050918500C9011B
:101900000196092E000CAA0BBB0BDC019927882736
:1019100060E070E0842B952BA62BB72B80931E01E3
:1019200090931F01A0932001B0932101E091D80171
:10193000F091D901309739F06DE070E0809140016D
:101940009091410109950E949306FF91EF91BF91FB
:10195000AF919F918F917F916F915F914F913F9147
:101960002F910F900FBE0F901F9018951F920F92FE
:101970000FB60F9211242F933F934F935F936F9362
:101980007F938F939F93AF93BF93EF93FF93209198
:101990001C0130911D014091840050918500C901C6
:1019A000032E000CAA0BBB0BDC019927882760E0F3
:1019B00070E0842B952BA62BB72B80931E01909360
:1019C0001F01A0932001B0932101B09B1BC0409147
:1019D000840050918500C9010196092E000CAA0BC4
:1019E000BB0BDC019927882760E070E0842B952BE6
:1019F000A62BB72B80931E0190931F01A09320016B
:101A0000B0932101E091DA01F091DB01309739F0D8
:101A10006EE070E0809142019091430109950E942F
:101A20009306FF91EF91BF91AF919F918F917F911D
:101A30006F915F914F913F912F910F900FBE0F903B
:101A40001F9018951F920F920FB60F9211242F938B
:101A50003F934F935F936F937F938F939F93AF9336
:101A6000BF93EF93FF9320911C0130911D01409192
:101A7000840050918500C901032E000CAA0BBB0BFA
:101A8000DC019927882760E070E0842B952BA62B3A
:101A9000B72B80931E0190931F01A0932001B09358
:101AA0002101B09B1BC04091840050918500C90169
:101AB0000196092E000CAA0BBB0BDC019927882785
:101AC00060E070E0842B952BA62BB72B80931E0132
:101AD00090931F01A0932001B0932101E091DC01BC
:101AE000F091DD01309739F06FE070E080914401B2
:101AF0009091450109950E949306FF91EF91BF9146
:101B0000AF919F918F917F916F915F914F913F9195
:101B10002F910F900FBE0F901F9018951F920F924C
:101B20000FB60F9211242F933F934F935F936F93B0
:101B30007F938F939F93AF93BF93EF93FF932091E6
:101B40001C0130911D014091840050918500C90114
:101B5000032E000CAA0BBB0BDC019927882760E041
:101B600070E0842B952BA62BB72B80931E019093AE
:101B70001F01A0932001B0932101B09B1BC0409195
:101B8000840050918500C9010196092E000CAA0B12
:101B9000BB0BDC019927882760E070E0842B952B34
:101BA000A62BB72B80931E0190931F01A0932001B9
:101BB000B0932101E091DE01F091DF01309739F01F
:101BC00060E170E0809146019091470109950E9483
:101BD0009306FF91EF91BF91AF919F918F917F916C
:101BE0006F915F914F913F912F910F900FBE0F908A
:101BF0001F9018951F920F920FB60F9211242F93DA
:101C00003F934F935F936F937F938F939F93AF9384
:101C1000BF93EF93FF9320911C0130911D014091E0
:101C2000840050918500C901032E000CAA0BBB0B48
:101C3000DC019927882760E070E0842B952BA62B88
:101C4000B72B80931E0190931F01A0932001B093A6
:101C50002101B09B1BC04091840050918500C901B7
:101C60000196092E000CAA0BBB0BDC0199278827D3
:101C700060E070E0842B952BA62BB72B80931E0180
:101C800090931F01A0932001B0932101E091E00106
:101C9000F091E101309739F061E170E08091480105
:101CA0009091490109950E949306FF91EF91BF9190
:101CB000AF919F918F917F916F915F914F913F91E4
:101CC0002F910F900FBE0F901F901895EF92FF92DB
:101CD0000F931F93CF93DF937B01EB01A881B98111
:101CE000109761F1FC0106811781208531851696D8
:101CF0004D915D916D917C911997041715072607F9
:101D0000370714F41BC0DF01ED91FC911197309758
:101D100049F04681578160857185041715072607AC
:101D200037078CF7EC01F983E883109721F4F7016A
:101D30009183808307C08D939C9304C0EC01B98389
:101D4000A883F5CFDF91CF911F910F91FF90EF9076
:101D50000895EF92FF920F931F93CF93DF937B0130
:101D6000EB01A881B981109761F1FC010281138117
:101D70002481358112964D915D916D917C911597DD
:101D8000041715072607370714F41BC0DF01ED9170
:101D9000FC911197309749F042815381648175819C
:101DA00004171507260737078CF7EC01F983E8833A
:101DB000109721F4F7019183808307C08D939C9342
:101DC00004C0EC01B983A883F5CFDF91CF911F91B7
:101DD0000F91FF90EF900895DC01ED91FC91119728
:101DE000309759F48FEF8093EC008093ED0080934F
:101DF000EE0081E083BF8895FDCF208131812D9356
:101E00003C93CF0108951F920F920FB60F921124A9
:101E10002F933F934F935F936F937F938F939F93F2
:101E2000EF93FF9380911C0190911D010196909377
:101E30001D0180931C01E0912201F0912301309754
:101E400001F1428153816481758186179707C9F436
:101E5000CA012091840030918500421B530B413010
:101E6000510529F48091840090918500019690930A
:101E7000890080938800EFE6F0E0808182608083B3
:101E800005C0EFE6F0E080818D7F8083FF91EF91C8
:101E90009F918F917F916F915F914F913F912F9182
:101EA0000F900FBE0F901F9018951F920F920FB6B4
:101EB0000F921124CF92DF92EF92FF922F933F93D4
:101EC0004F935F936F937F938F939F93AF93BF9342
:101ED000EF93FF93C0901C01D0901D0120918400CE
:101EE00030918500B0990FC00D2C000CEE08FF0852
:101EF000D601992788276901E12CF12CC82AD92A13
:101F0000EA2AFB2A15C020918400309185008FEFCA
:101F1000C81AD80A0D2C000CEE08FF08D601992724
:101F200088276901E12CF12CC82AD92AEA2AFB2A40
:101F3000E0912201F0912301309709F442C082819F
:101F40009381A481B5818C199D09AE09BF0918162A
:101F500019061A061B06ECF182E291E00E94EC0ED3
:101F600064E271E00E94660EE0912201F09123018B
:101F7000309739F182819381A481B5818C199D09B3
:101F8000AE09BF09181619061A061B062CF721C040
:101F90009C014091840050918500841B950B019712
:101FA00031F420918400309185002F5F3F4F3093B2
:101FB000890020938800EFE6F0E0808182608083D2
:101FC00005C0EFE6F0E080818D7F80830E9493065C
:101FD0000CC082819381A481B58120911C01309134
:101FE0001D012A173B0769F7D3CFFF91EF91BF91EE
:101FF000AF919F918F917F916F915F914F913F91A1
:102000002F91FF90EF90DF90CF900F900FBE0F9029
:102010001F9018953F924F925F926F927F928F928E
:102020009F92AF92BF92CF92DF92EF92FF920F9367
:102030001F93CF93DF932B013C0149015A018FB7C6
:102040008078382EF8948AE191E00E94EC0EEC0141
:102050001B870A87FD86EC86DF86CE86332061F0FB
:10206000E0911401F09115010280F381E02D82814D
:102070009381A481B58108C080911E0190911F01B8
:10208000A0912001B0912101480E591E6A1E7B1EAD
:102090004A825B826C827D82181419041A041B0424
:1020A00044F00F2E88248A94982CA82CFFE7BF2E8A
:1020B000F02D840C951CA61CB71C8E829F82A886CE
:1020C000B98680911C0190911D014091840050912E
:1020D0008500B0990EC0092E000CAA0BBB0BDC01C9
:1020E0009927882760E070E0842B952BA62BB72BCF
:1020F00013C020918400309185000196092E000CB8
:10210000AA0BBB0BDC0199278827A90160E070E0CE
:10211000842B952BA62BB72B481A590A6A0A7B0ADF
:102120001414150416041704ACF562E271E0CE0134
:102130000E94A90EE0912201F0912301309721F134
:1021400082819381A481B58120911C0130911D0170
:102150002A173B07C9F49C014091840050918500E7
:10216000841B950B019731F42091840030918500F8
:102170002F5F3F4F3093890020938800EFE6F0E017
:1021800080818260808341C0EFE6F0E080818D7FB6
:1021900080833BC064E271E0CE010E94660E332072
:1021A000B9F18091180190911901009781F1E091A6
:1021B0001601F0911701209124013091250102812F
:1021C0001381D90116964D915D916D917C9119976E
:1021D000D80116960D911D912D913C911997401B98
:1021E000510B620B730B9AF4DC012D913C9111970A
:1021F0003093190120931801ED93FC9390931701EC
:10220000809316010E94730602C0332009F078946F
:10221000CE01DF91CF911F910F91FF90EF90DF9052
:10222000CF90BF90AF909F908F907F906F905F9076
:102230004F903F900895CF92DF92EF92FF920F93CD
:102240001F93CF93DF93EC017B016A011FB71078D6
:10225000F894A881B981109761F11496ED91FC91E1
:102260001597309741F0A081B1811496ED91FC91C2
:1022700015973097C1F720911401309115012A1755
:102280003B0721F0112309F43DC007C0112309F4D5
:102290003CC078948FEF9FEF52C08A819B8100975A
:1022A000D1F1FC011582148236C0789480E090E070
:1022B00046C0809114019091150199838883112360
:1022C00029F08A819B81019709F07894B601CE01AB
:1022D000F7010995F82E092F8FB7F8941982188203
:1022E0008A819B818230910538F01B821A82FC0121
:1022F000158214820E947306112351F078948F2D59
:10230000902F1DC08FEF9FEF1AC08FEF9FEF17C068
:102310008F2D902F14C03B832A83F901D583C4836A
:10232000CD010E947306E0911401F09115018281A4
:102330009381892B09F4B9CFF983E883C2CFDF9168
:10234000CF911F910F91FF90EF90DF90CF90089564
:10235000009114011091150184E291E00E94EC0EAD
:10236000EC01D80113969C938E93129778944E8526
:102370005F856C857D858A859B850E941B118FB743
:10238000F89480911A0190911B0199838883D093CE
:102390001B01C0931A01E0911601F0911701008111
:1023A0001181E8012A813B81A0912401B09125018E
:1023B0001097C1F02115310559F216968D919D9116
:1023C0000D90BC91A02DE9014E815F8168857985D2
:1023D000841B950BA60BB70B181619061A061B06BD
:1023E0000CF0B6CF109317010093160180911801DD
:1023F0009091190191838083F0931901E093180162
:10240000A0911601B09117011496ED91FC911597CA
:10241000309741F0A081B1811496ED91FC91159710
:102420003097C1F7CD010E94730692CF4231B8F4C4
:102430002FB7F89450E0440F551FFA01EA5DFE4FA4
:1024400091838083FA01E254FE4F7183608341E0FF
:1024500050E0FC015383428322230CF478940895C6
:102460008C017B016A018FB7F8940E94080678946A
:10247000E114F10441F020E030E0A90160E070E0F7
:10248000CB010E940A108FB7F8940E9493067894AB
:1024900081E083BF8895FDCF97FB072E16F400944B
:1024A00007D077FD09D00E948A1207FC05D03EF4C0
:1024B000909581959F4F0895709561957F4F0895F0
:1024C000052E97FB1EF400940E94771257FD07D04B
:1024D0000E949E1207FC03D04EF40C947712509584
:1024E0004095309521953F4F4F4F5F4F0895909500
:1024F0008095709561957F4F8F4F9F4F08950E94F3
:10250000C012A59F900DB49F900DA49F800D911DAA
:1025100011240895AA1BBB1B51E107C0AA1FBB1FB2
:10252000A617B70710F0A61BB70B881F991F5A955F
:10253000A9F780959095BC01CD010895A1E21A2ECE
:10254000AA1BBB1BFD010DC0AA1FBB1FEE1FFF1F57
:10255000A217B307E407F50720F0A21BB30BE40BA7
:10256000F50B661F771F881F991F1A9469F76095EE
:102570007095809590959B01AC01BD01CF010895A8
:10258000A29FB001B39FC001A39F700D811D1124B4
:10259000911DB29F700D811D1124911D0895DC01C4
:1025A0002D923D924D925D926D927D928D929D9273
:1025B000AD92BD92CD92DD92ED92FD920D931D9361
:1025C000CD93DD93FF91EF918DB78D938EB78D9362
:1025D0008FB78D93ED93FD93882799270994DC019C
:1025E000CB0181309105811D2D903D904D905D90E6
:1025F0006D907D908D909D90AD90BD90CD90DD9033
:10260000ED90FD900D911D91CD91DD91ED91FD919C
:102610000D90F894FEBF0FBEEDBFED91FD910994B2
:04262000F894FFCF5C
:1026240051151001E111B111B005B114F1141011DB
:0C263400F115B115E201E2014A01FF01BD
:040000030000084EA3
:00000001FF
