:100000000C942E000C949C040C9408050C9474051C
:100010000C94E0050C944C060C944B000C94230DAE
:100020000C944B000C94D10C0C94B8060C9424073F
:100030000C9490070C94FC070C9468080C94D4085A
:100040000C9440090C94AC090C94180A0C94840A82
:100050000C94F00A0C945C0B0C94C80B11241FBE7A
:10006000CFEFD4E0DEBFCDBF11E0A0E0B1E0EAE029
:10007000F1E202C005900D92AC34B107D9F724E04B
:10008000ACE4B1E001C01D92A33AB207E1F70E94CF
:1000900014020C9483100C940000EF92FF920F93C3
:1000A0001F93CF93DF9300D000D0CDB7DEB7E82FFA
:1000B000F0E0EE0FFF1FE056FF4F80819181FE01BF
:1000C0003196AE014B5F5F4F282F2F702193929591
:1000D00082958F7089279F708927E417F507A1F70C
:1000E0006630710508F050C16115710559F52CEEA7
:1000F00030E0F9018081807F808381EF90E0FC0116
:100100004081407F4083A6EFB0E04C91407F4C930C
:100110000BEF10E0F8014081407F4083F9015081EE
:100120004C81452B4083FC0130812B81232B208384
:100130009C918A81892B8C93F80190818981892BEC
:10014000808373C06130710509F041C04CEE50E00E
:10015000FA0180818F70808321EF30E0F901808186
:100160008F708083A6EFB0E08C918F708C930F2EF0
:10017000FBEFEF2EF12CF02DF70180818F70808343
:10018000FA0110819C81F0E19F9FC0011124812B15
:10019000FA018083F90140819B81F0E19F9FC001BA
:1001A0001124842BF90180832C919A81F0E19F9F87
:1001B000C0011124822B8C93F70120819981F0E1F9
:1001C0009F9FC0011124822BF70180836FC0623092
:1001D000710559F52DEE30E0F9018081807F808333
:1001E00082EF90E0FC014081407F4083A7EFB0E0C8
:1001F0004C91407F4C930CEF10E0F8014081407F20
:100200004083F90150814C81452B4083FC013081B2
:100210002B81232B20839C918A81892B8C93F8013D
:1002200090818981892B80836FC063307105F1F5DE
:100230004DEE50E0FA0180818F70808322EF30E034
:10024000F90180818F708083A7EFB0E08C918F706F
:100250008C930CEF10E0F80180818F708083FA019D
:1002600060819C81F0E19F9FC0011124862BFA01DF
:100270008083F90140819B81F0E19F9FC00111249F
:10028000842BF90180832C919A81F0E19F9FC0011A
:100290001124822B8C93F80120819981F0E19F9F9A
:1002A000C0011124822BF80180836EC06430710577
:1002B00059F52EEE30E0F9018081807F808383EF55
:1002C00090E0FC014081407F4083A8EFB0E04C917A
:1002D000407F4C936DEF70E0FB014081407F408395
:1002E000F90150814C81452B4083FC0130812B81E9
:1002F000232B20839C918A81892B8C93FB019081F5
:100300008981892B808340C065307105E9F54EEE07
:1003100050E0FA0180818F70808323EF30E0F90193
:1003200080818F708083A8EFB0E08C918F708C9368
:100330000DEF10E0F80180818F708083FA016081F9
:100340009C81F0E19F9FC0011124862BFA018083DC
:10035000F90140819B81F0E19F9FC0011124842B12
:10036000F90180832C919A81F0E19F9FC0011124B3
:10037000822B8C93F80120819981F0E19F9FC0012D
:100380001124822BF80180830F900F900F900F9013
:10039000DF91CF911F910F91FF90EF900895EF9211
:1003A000FF920F931F93CF93DF93EC017B01CB015F
:1003B00064E670E00E941A100AE010E0B8010E94A2
:1003C0001A10862FBE01805D0E944D002196C70144
:1003D000B8010E941A10BE01805D0E944D00DF919D
:1003E000CF911F910F91FF90EF900895E1E6F0E01B
:1003F00080E880831082089520ED25B99CE09EB9A5
:1004000080EC8DBB20936C0090936B0090E59DB9C0
:1004100097EB9093E50097E09093E6009FE0909330
:10042000E7008093E40008950E94F6010E94FC0119
:1004300041E062EA72E086E391E00E94E40F42E06C
:1004400062EA72E086E391E00E94E40F40E050E04F
:1004500067E673E086E391E00E94FE0F0895FC01D9
:1004600020853185232B19F4848195810895FC0121
:10047000868197810895CF92DF92EF92FF920F933A
:100480001F93CF93DF93EC010E942F021F9926C088
:100490002A85222309F44BC0C12CD12C0F2EF4EA5B
:1004A000EF2EF3E0FF2EF02D8C0120E030E0A901CB
:1004B00060E070E0CB010E94D80D0F2EFBE3EF2E21
:1004C000F2E0FF2EF02D8E0120E030E0A9016FE474
:1004D00072E180E090E00E94D80D2BC01E9925C0EB
:1004E0002A85222311F1C12CD12C0F2EF5E9EF2EF4
:1004F000F3E0FF2EF02D8C0120E030E0A90160E058
:1005000070E0CB010E94D80D0F2EFBE3EF2EF2E03E
:10051000FF2EF02D8E0120E030E0A9016FE472E1A2
:1005200080E090E00E94D80D04C01A8602C083B11A
:10053000FCCFDF91CF911F910F91FF90EF90DF9053
:10054000CF900895AF92BF92CF92DF92EF92FF9239
:100550000F931F93CF93DF93EC010E942F025C0156
:100560008A858111A9C01F9926C0C12CD12C0F2EBC
:10057000F4EAEF2EF3E0FF2EF02D850120E030E0CD
:10058000A90160E070E0CB010E94D80D8A8581113D
:1005900012C081E08A870F2EFBE3EF2EF2E0FF2EE0
:1005A000F02D8E0120E030E0A90164ED70E380E0E1
:1005B00090E00E94D80D1E9926C0C12CD12C0F2E80
:1005C000F5E9EF2EF3E0FF2EF02D850120E030E07D
:1005D000A90160E070E0CB010E94D80D8A858111ED
:1005E00012C081E08A870F2EFBE3EF2EF2E0FF2E90
:1005F000F02D8E0120E030E0A90164ED70E380E091
:1006000090E00E94D80D629913C019861886C12CFB
:10061000D12C0F2EFFE2EF2EF2E0FF2EF02D850100
:1006200020E030E0A90160E070E0CB010E94D80D2D
:10063000639915C084E090E099878887C12CD12CFC
:100640000F2EFFE2EF2EF2E0FF2EF02D850120E0CD
:1006500030E0A90160E070E0CB010E94D80D1C9948
:100660002BC0F50184819581892BA9F48485882389
:1006700091F0C12CD12C0F2EF3ECEF2EF3E0FF2ED6
:10068000F02D850120E030E0A90160E070E0CB01B1
:100690000E94D80D11C0C12CD12C0F2EF3EBEF2EE0
:1006A000F3E0FF2EF02D850120E030E0A90160E0AD
:1006B00070E0CB010E94D80DDF91CF911F910F9177
:1006C000FF90EF90DF90CF90BF90AF900895CF92C2
:1006D000DF92EF92FF920F931F93CF93DF93EC0182
:1006E0000C811D81C12CD12C0F2EFEECEF2EF3E0DE
:1006F000FF2EF02D20E030E0A90160E070E0CB019A
:100700000E94D80D0E811F8120E030E0A90160E039
:1007100070E0CB010E94D80DDF91CF911F910F9116
:10072000FF90EF90DF90CF900895FC016481758178
:100730006336710544F46F5F7F4F758364838285F0
:1007400093850E94CF010895FC016481758116167E
:10075000170644F46150710975836483828593851B
:100760000E94CF010895FC0184819581978386833F
:100770001582148281E0848760E070E08285938531
:100780000E94CF010895FC0166817781758364839F
:100790001486828593850E94CF010895FC016481AF
:1007A0007581828593850E94CF010895CF93DF9351
:1007B00000D000D0CDB7DEB783E492E023E233E08F
:1007C000FC01709791838083409682179307C1F74D
:1007D0001092140310921303EEE7F1E08BE991E01D
:1007E0009183808388EB91E0968F858FA5EDB1E0B2
:1007F000B3AFA2AF1D921C92FA83E983EFE7F3E057
:10080000FC83EB8389819A8106960E9442108B813A
:100810009C81E981FA81978B868B918F808F86E707
:100820009FE0948F838F158214827D96FA83E983EB
:10083000EB81FC81E05AFF4FFC83EB8389819A8135
:10084000825F9140F9F6E6E1F2E0118210821582B2
:10085000148213821282E1E6F0E080E88083108245
:10086000109285001092840084E08093810081E0E2
:1008700080936F000F900F900F900F90DF91CF91AA
:100880000895CF93DF9300D0CDB7DEB79A838983E5
:10089000809143019091440106960E944210892B59
:1008A00059F489819A81909344018093430161E0D6
:1008B00070E006960E9462100F900F90DF91CF912A
:1008C00008950F931F93CF93DF93E0915801F09118
:1008D0005901309761F1809147019091480100974B
:1008E00031F1C0914501D0914601AA81BB81109799
:1008F00079F0468157816085718516960D911D911D
:100900002D913C911997401B510B620B730B7AF49C
:10091000FC01208131813093480120934701D1832C
:10092000C08390934601809345010E944104DF916A
:10093000CF911F910F9108951F920F920FB60F92B2
:1009400011242F933F934F935F936F937F938F93D4
:100950009F93AF93BF93EF93FF93209150013091FA
:1009600051014091840050918500C901032E000C73
:10097000AA0BBB0BDC019927882760E070E0842B71
:10098000952BA62BB72B8093520190935301A093E4
:100990005401B0935501B09B1BC04091840050910D
:1009A0008500C9010196092E000CAA0BBB0BDC01C6
:1009B0009927882760E070E0842B952BA62BB72B16
:1009C0008093520190935301A0935401B093550129
:1009D000E091F201F091F301309739F060E070E0BE
:1009E00080915A0190915B0109950E946104FF91E9
:1009F000EF91BF91AF919F918F917F916F915F9197
:100A00004F913F912F910F900FBE0F901F9018950F
:100A10001F920F920FB60F9211242F933F934F9373
:100A20005F936F937F938F939F93AF93BF93EF9356
:100A3000FF932091500130915101409184005091D9
:100A40008500C901032E000CAA0BBB0BDC01992702
:100A5000882760E070E0842B952BA62BB72B809322
:100A6000520190935301A0935401B0935501B09B50
:100A70001BC04091840050918500C9010196092E48
:100A8000000CAA0BBB0BDC019927882760E070E003
:100A9000842B952BA62BB72B809352019093530157
:100AA000A0935401B0935501E091F401F091F50148
:100AB000309739F061E070E080915C0190915D01C8
:100AC00009950E946104FF91EF91BF91AF919F91B1
:100AD0008F917F916F915F914F913F912F910F90E7
:100AE0000FBE0F901F9018951F920F920FB60F9286
:100AF00011242F933F934F935F936F937F938F9323
:100B00009F93AF93BF93EF93FF9320915001309148
:100B100051014091840050918500C901032E000CC1
:100B2000AA0BBB0BDC019927882760E070E0842BBF
:100B3000952BA62BB72B8093520190935301A09332
:100B40005401B0935501B09B1BC04091840050915B
:100B50008500C9010196092E000CAA0BBB0BDC0114
:100B60009927882760E070E0842B952BA62BB72B64
:100B70008093520190935301A0935401B093550177
:100B8000E091F601F091F701309739F062E070E002
:100B900080915E0190915F0109950E946104FF912F
:100BA000EF91BF91AF919F918F917F916F915F91E5
:100BB0004F913F912F910F900FBE0F901F9018955E
:100BC0001F920F920FB60F9211242F933F934F93C2
:100BD0005F936F937F938F939F93AF93BF93EF93A5
:100BE000FF93209150013091510140918400509128
:100BF0008500C901032E000CAA0BBB0BDC01992751
:100C0000882760E070E0842B952BA62BB72B809370
:100C1000520190935301A0935401B0935501B09B9E
:100C20001BC04091840050918500C9010196092E96
:100C3000000CAA0BBB0BDC019927882760E070E051
:100C4000842B952BA62BB72B8093520190935301A5
:100C5000A0935401B0935501E091F801F091F9018E
:100C6000309739F063E070E080916001909161010C
:100C700009950E946104FF91EF91BF91AF919F91FF
:100C80008F917F916F915F914F913F912F910F9035
:100C90000FBE0F901F9018951F920F920FB60F92D4
:100CA00011242F933F934F935F936F937F938F9371
:100CB0009F93AF93BF93EF93FF9320915001309197
:100CC00051014091840050918500C901032E000C10
:100CD000AA0BBB0BDC019927882760E070E0842B0E
:100CE000952BA62BB72B8093520190935301A09381
:100CF0005401B0935501B09B1BC0409184005091AA
:100D00008500C9010196092E000CAA0BBB0BDC0162
:100D10009927882760E070E0842B952BA62BB72BB2
:100D20008093520190935301A0935401B0935501C5
:100D3000E091FA01F091FB01309739F064E070E046
:100D4000809162019091630109950E946104FF9175
:100D5000EF91BF91AF919F918F917F916F915F9133
:100D60004F913F912F910F900FBE0F901F901895AC
:100D70001F920F920FB60F9211242F933F934F9310
:100D80005F936F937F938F939F93AF93BF93EF93F3
:100D9000FF93209150013091510140918400509176
:100DA0008500C901032E000CAA0BBB0BDC0199279F
:100DB000882760E070E0842B952BA62BB72B8093BF
:100DC000520190935301A0935401B0935501B09BED
:100DD0001BC04091840050918500C9010196092EE5
:100DE000000CAA0BBB0BDC019927882760E070E0A0
:100DF000842B952BA62BB72B8093520190935301F4
:100E0000A0935401B0935501E091FC01F091FD01D4
:100E1000309739F065E070E0809164019091650150
:100E200009950E946104FF91EF91BF91AF919F914D
:100E30008F917F916F915F914F913F912F910F9083
:100E40000FBE0F901F9018951F920F920FB60F9222
:100E500011242F933F934F935F936F937F938F93BF
:100E60009F93AF93BF93EF93FF93209150013091E5
:100E700051014091840050918500C901032E000C5E
:100E8000AA0BBB0BDC019927882760E070E0842B5C
:100E9000952BA62BB72B8093520190935301A093CF
:100EA0005401B0935501B09B1BC0409184005091F8
:100EB0008500C9010196092E000CAA0BBB0BDC01B1
:100EC0009927882760E070E0842B952BA62BB72B01
:100ED0008093520190935301A0935401B093550114
:100EE000E091FE01F091FF01309739F066E070E08B
:100EF000809166019091670109950E946104FF91BC
:100F0000EF91BF91AF919F918F917F916F915F9181
:100F10004F913F912F910F900FBE0F901F901895FA
:100F20001F920F920FB60F9211242F933F934F935E
:100F30005F936F937F938F939F93AF93BF93EF9341
:100F4000FF932091500130915101409184005091C4
:100F50008500C901032E000CAA0BBB0BDC019927ED
:100F6000882760E070E0842B952BA62BB72B80930D
:100F7000520190935301A0935401B0935501B09B3B
:100F80001BC04091840050918500C9010196092E33
:100F9000000CAA0BBB0BDC019927882760E070E0EE
:100FA000842B952BA62BB72B809352019093530142
:100FB000A0935401B0935501E0910002F091010219
:100FC000309739F067E070E0809168019091690195
:100FD00009950E946104FF91EF91BF91AF919F919C
:100FE0008F917F916F915F914F913F912F910F90D2
:100FF0000FBE0F901F9018951F920F920FB60F9271
:1010000011242F933F934F935F936F937F938F930D
:101010009F93AF93BF93EF93FF9320915001309133
:1010200051014091840050918500C901032E000CAC
:10103000AA0BBB0BDC019927882760E070E0842BAA
:10104000952BA62BB72B8093520190935301A0931D
:101050005401B0935501B09B1BC040918400509146
:101060008500C9010196092E000CAA0BBB0BDC01FF
:101070009927882760E070E0842B952BA62BB72B4F
:101080008093520190935301A0935401B093550162
:10109000E0910202F0910302309739F068E070E0CD
:1010A00080916A0190916B0109950E946104FF9102
:1010B000EF91BF91AF919F918F917F916F915F91D0
:1010C0004F913F912F910F900FBE0F901F90189549
:1010D0001F920F920FB60F9211242F933F934F93AD
:1010E0005F936F937F938F939F93AF93BF93EF9390
:1010F000FF93209150013091510140918400509113
:101100008500C901032E000CAA0BBB0BDC0199273B
:10111000882760E070E0842B952BA62BB72B80935B
:10112000520190935301A0935401B0935501B09B89
:101130001BC04091840050918500C9010196092E81
:10114000000CAA0BBB0BDC019927882760E070E03C
:10115000842B952BA62BB72B809352019093530190
:10116000A0935401B0935501E0910402F09105025F
:10117000309739F069E070E080916C0190916D01D9
:1011800009950E946104FF91EF91BF91AF919F91EA
:101190008F917F916F915F914F913F912F910F9020
:1011A0000FBE0F901F9018951F920F920FB60F92BF
:1011B00011242F933F934F935F936F937F938F935C
:1011C0009F93AF93BF93EF93FF9320915001309182
:1011D00051014091840050918500C901032E000CFB
:1011E000AA0BBB0BDC019927882760E070E0842BF9
:1011F000952BA62BB72B8093520190935301A0936C
:101200005401B0935501B09B1BC040918400509194
:101210008500C9010196092E000CAA0BBB0BDC014D
:101220009927882760E070E0842B952BA62BB72B9D
:101230008093520190935301A0935401B0935501B0
:10124000E0910602F0910702309739F06AE070E011
:1012500080916E0190916F0109950E946104FF9148
:10126000EF91BF91AF919F918F917F916F915F911E
:101270004F913F912F910F900FBE0F901F90189597
:101280001F920F920FB60F9211242F933F934F93FB
:101290005F936F937F938F939F93AF93BF93EF93DE
:1012A000FF93209150013091510140918400509161
:1012B0008500C901032E000CAA0BBB0BDC0199278A
:1012C000882760E070E0842B952BA62BB72B8093AA
:1012D000520190935301A0935401B0935501B09BD8
:1012E0001BC04091840050918500C9010196092ED0
:1012F000000CAA0BBB0BDC019927882760E070E08B
:10130000842B952BA62BB72B8093520190935301DE
:10131000A0935401B0935501E0910802F0910902A5
:10132000309739F06BE070E080917001909171011D
:1013300009950E946104FF91EF91BF91AF919F9138
:101340008F917F916F915F914F913F912F910F906E
:101350000FBE0F901F9018951F920F920FB60F920D
:1013600011242F933F934F935F936F937F938F93AA
:101370009F93AF93BF93EF93FF93209150013091D0
:1013800051014091840050918500C901032E000C49
:10139000AA0BBB0BDC019927882760E070E0842B47
:1013A000952BA62BB72B8093520190935301A093BA
:1013B0005401B0935501B09B1BC0409184005091E3
:1013C0008500C9010196092E000CAA0BBB0BDC019C
:1013D0009927882760E070E0842B952BA62BB72BEC
:1013E0008093520190935301A0935401B0935501FF
:1013F000E0910A02F0910B02309739F06CE070E056
:10140000809172019091730109950E946104FF918E
:10141000EF91BF91AF919F918F917F916F915F916C
:101420004F913F912F910F900FBE0F901F901895E5
:101430001F920F920FB60F9211242F933F934F9349
:101440005F936F937F938F939F93AF93BF93EF932C
:10145000FF932091500130915101409184005091AF
:101460008500C901032E000CAA0BBB0BDC019927D8
:10147000882760E070E0842B952BA62BB72B8093F8
:10148000520190935301A0935401B0935501B09B26
:101490001BC04091840050918500C9010196092E1E
:1014A000000CAA0BBB0BDC019927882760E070E0D9
:1014B000842B952BA62BB72B80935201909353012D
:1014C000A0935401B0935501E0910C02F0910D02EC
:1014D000309739F06DE070E0809174019091750162
:1014E00009950E946104FF91EF91BF91AF919F9187
:1014F0008F917F916F915F914F913F912F910F90BD
:101500000FBE0F901F9018951F920F920FB60F925B
:1015100011242F933F934F935F936F937F938F93F8
:101520009F93AF93BF93EF93FF932091500130911E
:1015300051014091840050918500C901032E000C97
:10154000AA0BBB0BDC019927882760E070E0842B95
:10155000952BA62BB72B8093520190935301A09308
:101560005401B0935501B09B1BC040918400509131
:101570008500C9010196092E000CAA0BBB0BDC01EA
:101580009927882760E070E0842B952BA62BB72B3A
:101590008093520190935301A0935401B09355014D
:1015A000E0910E02F0910F02309739F06EE070E09A
:1015B000809176019091770109950E946104FF91D5
:1015C000EF91BF91AF919F918F917F916F915F91BB
:1015D0004F913F912F910F900FBE0F901F90189534
:1015E0001F920F920FB60F9211242F933F934F9398
:1015F0005F936F937F938F939F93AF93BF93EF937B
:10160000FF932091500130915101409184005091FD
:101610008500C901032E000CAA0BBB0BDC01992726
:10162000882760E070E0842B952BA62BB72B809346
:10163000520190935301A0935401B0935501B09B74
:101640001BC04091840050918500C9010196092E6C
:10165000000CAA0BBB0BDC019927882760E070E027
:10166000842B952BA62BB72B80935201909353017B
:10167000A0935401B0935501E0911002F091110232
:10168000309739F06FE070E08091780190917901A6
:1016900009950E946104FF91EF91BF91AF919F91D5
:1016A0008F917F916F915F914F913F912F910F900B
:1016B0000FBE0F901F9018951F920F920FB60F92AA
:1016C00011242F933F934F935F936F937F938F9347
:1016D0009F93AF93BF93EF93FF932091500130916D
:1016E00051014091840050918500C901032E000CE6
:1016F000AA0BBB0BDC019927882760E070E0842BE4
:10170000952BA62BB72B8093520190935301A09356
:101710005401B0935501B09B1BC04091840050917F
:101720008500C9010196092E000CAA0BBB0BDC0138
:101730009927882760E070E0842B952BA62BB72B88
:101740008093520190935301A0935401B09355019B
:10175000E0911202F0911302309739F060E170E0ED
:1017600080917A0190917B0109950E946104FF911B
:10177000EF91BF91AF919F918F917F916F915F9109
:101780004F913F912F910F900FBE0F901F90189582
:101790001F920F920FB60F9211242F933F934F93E6
:1017A0005F936F937F938F939F93AF93BF93EF93C9
:1017B000FF9320915001309151014091840050914C
:1017C0008500C901032E000CAA0BBB0BDC01992775
:1017D000882760E070E0842B952BA62BB72B809395
:1017E000520190935301A0935401B0935501B09BC3
:1017F0001BC04091840050918500C9010196092EBB
:10180000000CAA0BBB0BDC019927882760E070E075
:10181000842B952BA62BB72B8093520190935301C9
:10182000A0935401B0935501E0911402F091150278
:10183000309739F061E170E080917C0190917D01F9
:1018400009950E946104FF91EF91BF91AF919F9123
:101850008F917F916F915F914F913F912F910F9059
:101860000FBE0F901F901895EF92FF920F931F934A
:10187000CF93DF937B01EB01A881B981109761F1D0
:10188000FC01068117812085318516964D915D9169
:101890006D917C911997041715072607370714F4E3
:1018A0001BC0DF01ED91FC911197309749F0468103
:1018B00057816085718504171507260737078CF750
:1018C000EC01F983E883109721F4F7019183808379
:1018D00007C08D939C9304C0EC01B983A883F5CF16
:1018E000DF91CF911F910F91FF90EF900895EF92AC
:1018F000FF920F931F93CF93DF937B01EB01A8819E
:10190000B981109761F1FC01028113812481358135
:1019100012964D915D916D917C9115970417150765
:101920002607370714F41BC0DF01ED91FC911197D6
:10193000309749F0428153816481758104171507FE
:10194000260737078CF7EC01F983E883109721F419
:10195000F7019183808307C08D939C9304C0EC01B1
:10196000B983A883F5CFDF91CF911F910F91FF909D
:10197000EF900895DC01ED91FC911197309759F4A7
:101980008FEF8093EC008093ED008093EE0081E078
:1019900083BF8895FDCF208131812D933C93CF016A
:1019A00008951F920F920FB60F9211242F933F9319
:1019B0004F935F936F937F938F939F93EF93FF93D7
:1019C0008091500190915101019690935101809323
:1019D0005001E0915601F0915701309701F1428199
:1019E00053816481758186179707C9F4CA012091D4
:1019F000840030918500421B530B4130510529F47E
:101A00008091840090918500019690938900809345
:101A10008800EFE6F0E080818260808305C0EFE619
:101A2000F0E080818D7F8083FF91EF919F918F9176
:101A30007F916F915F914F913F912F910F900FBECA
:101A40000F901F9018951F920F920FB60F921124AE
:101A5000CF92DF92EF92FF922F933F934F935F933A
:101A60006F937F938F939F93AF93BF93EF93FF9366
:101A7000C0905001D0905101209184003091850098
:101A8000B0990FC00D2C000CEE08FF08D601992765
:101A900088276901E12CF12CC82AD92AEA2AFB2AD5
:101AA00015C020918400309185008FEFC81AD80AA4
:101AB0000D2C000CEE08FF08D60199278827690134
:101AC000E12CF12CC82AD92AEA2AFB2AE0915601F6
:101AD000F0915701309709F442C082819381A4812B
:101AE000B5818C199D09AE09BF09181619061A0689
:101AF0001B06ECF186E591E00E94BA0C68E571E006
:101B00000E94340CE0915601F0915701309739F161
:101B100082819381A481B5818C199D09AE09BF0989
:101B2000181619061A061B062CF721C09C014091B5
:101B3000840050918500841B950B019731F420910E
:101B40008400309185002F5F3F4F309389002093B0
:101B50008800EFE6F0E080818260808305C0EFE6D8
:101B6000F0E080818D7F80830E9461040CC08281BF
:101B70009381A481B58120915001309151012A17A0
:101B80003B0769F7D3CFFF91EF91BF91AF919F9141
:101B90008F917F916F915F914F913F912F91FF9026
:101BA000EF90DF90CF900F900FBE0F901F90189581
:101BB0003F924F925F926F927F928F929F92AF92DD
:101BC000BF92CF92DF92EF92FF920F931F93CF932A
:101BD000DF932B013C0149015A018FB78078382EE1
:101BE000F89489E491E00E94BA0CEC011B870A8703
:101BF000FD86EC86DF86CE86332061F0E0914301DE
:101C0000F09144010280F381E02D82819381A481CF
:101C1000B58108C08091520190915301A091540167
:101C2000B0915501480E591E6A1E7B1E4A825B8286
:101C30006C827D82181419041A041B0444F00F2EC0
:101C400088248A94982CA82CFFE7BF2EF02D840CB2
:101C5000951CA61CB71C8E829F82A886B98680918F
:101C60005001909151014091840050918500B099AC
:101C70000EC0092E000CAA0BBB0BDC01992788278C
:101C800060E070E0842B952BA62BB72B13C020911E
:101C90008400309185000196092E000CAA0BBB0B25
:101CA000DC0199278827A90160E070E0842B952B3F
:101CB000A62BB72B481A590A6A0A7B0A1414150472
:101CC00016041704ACF566E571E0CE010E94770CAE
:101CD000E0915601F0915701309721F18281938173
:101CE000A481B58120915001309151012A173B0701
:101CF000C9F49C014091840050918500841B950B90
:101D0000019731F420918400309185002F5F3F4F7F
:101D10003093890020938800EFE6F0E080818260B4
:101D2000808341C0EFE6F0E080818D7F80833BC0FF
:101D300068E571E0CE010E94340C3320B9F1809146
:101D4000470190914801009781F1E0914501F091A0
:101D50004601209158013091590102811381D90126
:101D600016964D915D916D917C911997D8011696BB
:101D70000D911D912D913C911997401B510B620BB8
:101D8000730B9AF4DC012D913C911197309348012B
:101D900020934701ED93FC93909346018093450176
:101DA0000E94410402C0332009F07894CE01DF91F3
:101DB000CF911F910F91FF90EF90DF90CF90BF9048
:101DC000AF909F908F907F906F905F904F903F90DB
:101DD0000895CF92DF92EF92FF920F931F93CF93CC
:101DE000DF93EC017B016A011FB71078F894A8819A
:101DF000B981109761F11496ED91FC911597309788
:101E000041F0A081B1811496ED91FC911597309726
:101E1000C1F720914301309144012A173B0721F07B
:101E2000112309F43DC007C0112309F43CC0789484
:101E30008FEF9FEF52C08A819B810097D1F1FC0107
:101E40001582148236C0789480E090E046C080917C
:101E500043019091440199838883112329F08A8159
:101E60009B81019709F07894B601CE01F70109959D
:101E7000F82E092F8FB7F894198218828A819B81D6
:101E80008230910538F01B821A82FC01158214827F
:101E90000E944104112351F078948F2D902F1DC082
:101EA0008FEF9FEF1AC08FEF9FEF17C08F2D902FEE
:101EB00014C03B832A83F901D583C483CD010E94DA
:101EC0004104E0914301F091440182819381892B87
:101ED00009F4B9CFF983E883C2CFDF91CF911F9185
:101EE0000F91FF90EF90DF90CF9008950091430104
:101EF0001091440188E591E00E94BA0CEC01D801F0
:101F000013969C938E93129778944E855F856C857B
:101F10007D858A859B850E94E90E8FB7F894809114
:101F2000490190914A0199838883D0934A01C093D3
:101F30004901E0914501F091460100811181E801DC
:101F40002A813B81A0915801B09159011097C1F0AD
:101F50002115310559F216968D919D910D90BC91E8
:101F6000A02DE9014E815F8168857985841B950BE1
:101F7000A60BB70B181619061A061B060CF0B6CFDF
:101F800010934601009345018091470190914801CB
:101F900091838083F0934801E0934701A09145012C
:101FA000B09146011496ED91FC911597309741F050
:101FB000A081B1811496ED91FC9115973097C1F7EE
:101FC000CD010E94410492CF4231B8F42FB7F8946A
:101FD00050E0440F551FFA01E65AFE4F918380836B
:101FE000FA01EE50FE4F7183608341E050E0FC0146
:101FF0005383428322230CF4789408958C017B014F
:102000006A018FB7F8940E94D6037894E114F10422
:1020100041F020E030E0A90160E070E0CB010E94D7
:10202000D80D8FB7F8940E946104789481E083BF43
:102030008895FDCF97FB072E16F4009407D077FD07
:1020400009D00E942E1007FC05D03EF49095819592
:102050009F4F0895709561957F4F0895AA1BBB1BF4
:1020600051E107C0AA1FBB1FA617B70710F0A61B98
:10207000B70B881F991F5A95A9F780959095BC01B9
:10208000CD010895DC012D923D924D925D926D92AD
:102090007D928D929D92AD92BD92CD92DD92ED9208
:1020A000FD920D931D93CD93DD93FF91EF918DB72D
:1020B0008D938EB78D938FB78D93ED93FD93882776
:1020C00099270994DC01CB0181309105811D2D9068
:1020D0003D904D905D906D907D908D909D90AD90D8
:1020E000BD90CD90DD90ED90FD900D911D91CD9125
:1020F000DD91ED91FD910D90F894FEBF0FBEEDBF07
:0A210000ED91FD910994F894FFCFD2
:10210A0051151001E111B111B005B114F1141011FA
:10211A00F115B115000000000000000004000000E5
:10212A00004C01000000000000000000000600044E
:10213A0000004C010000000000001401250100000D
:0C214A00000000160216027E01330200A5
:04000003000006CE25
:00000001FF
